:020000040800F2
:1000000058630020C10100084F270008AF240008F2
:100010004D270008B10300088536000800000000E5
:100020000000000000000000000000007D33000818
:100030007104000800000000512700087F33000809
:10004000DB010008DB010008DB010008DB01000820
:10005000DB010008DB010008DB010008DB01000810
:10006000DB010008DB010008DB010008DB01000800
:10007000DB010008DB010008DB010008DB010008F0
:10008000DB010008DB010008DB010008DB010008E0
:10009000DB010008DB010008DB010008DB010008D0
:1000A000DB010008DB010008DB010008DB010008C0
:1000B000DB010008DB010008DB010008DB010008B0
:1000C000DB010008DB010008DB010008DB010008A0
:1000D000DB010008DB010008DB010008DB01000890
:1000E000DB010008DB010008DB010008DB01000880
:1000F000DB010008DB010008DB010008DB01000870
:10010000DB010008DB010008DB010008DB0100085F
:10011000DB010008DB010008DB01000825340008D2
:10012000DB010008DB010008DB010008B503000863
:10013000DB010008DB010008DB010008DB0100082F
:10014000DB010008DB010008DB010008DB0100081F
:10015000DB010008C1030008DB010008DB01000827
:10016000DB010008DB010008DB010008DB010008FF
:10017000DB010008DB010008DB01000800000000D3
:10018000DB010008DB010008DB010008DB010008DF
:10019000DB010008DB010008DB010008DB010008CF
:1001A000DB010008DB010008DB010008DFF80CD0F0
:1001B00000F086F8004800472556000858630020E4
:1001C0000648804706480047FEE7FEE7FEE7FEE7F1
:1001D000FEE7FEE7FEE7FEE7FEE7FEE7093400087C
:1001E000AD0100082DE9F05F0546002092469B46D0
:1001F00088460646814640241BE02846414647463D
:10020000224600F04DF853465A46C01A914110D389
:1002100011461846224600F034F82D1A67EB010803
:100220004F4622460120002100F02BF817EB000971
:100230004E41201EA4F10104DFDC484631462A4627
:100240004346BDE8F09FD2B201E000F8012B491E01
:10025000FBD270470022F6E710B513460A46044663
:100260001946FFF7F0FF204610BD421E12F8013F6D
:10027000002BFBD111F8013B02F8013B002BF9D117
:100280007047202A04DB203A00FA02F10020704770
:100290009140C2F1200320FA03F3194390407047C4
:1002A000202A04DB203A21FA02F00021704721FACB
:1002B00002F3D040C2F12002914008431946704732
:1002C000064C074D06E0E06840F0010394E80700A3
:1002D00098471034AC42F6D3FFF76CFF340903089B
:1002E0005409030810B501242102034800F06AFEF6
:1002F00000B10024204610BD000002400146014824
:1003000001F05EBBB020002010B5044801F06AFB8C
:10031000042801D0012010BD002010BDB020002015
:1003200010B500F015F8012801D0012010BD0748D4
:1003300001F06EFB040006D14FF40061034801F0A8
:10034000F7F900B10124204610BD0000B0200020C4
:1003500008B501208DF80000FFF7C4FF10B9002098
:100360008DF800009DF8000008BD0000134610B590
:100370000A4601460024034801F028FC00B101248C
:10038000204610BDB0200020014901208860704740
:1003900008000020134610B50A4601460024034811
:1003A00001F0B0FC00B10124204610BDB0200020B7
:1003B000FEE70000014800F097BB00003421002058
:1003C000014800F091BB000094210020016818232F
:1003D000CAB2103AB2FBF3F2054B6FF30901032ADC
:1003E0009B5CC36500D9091D816508467047000004
:1003F000345D000810B5014600208B698A6A4FF011
:10040000C07453B1B3F5005F15D072B1012A0CD09E
:10041000022A0AD0032A09D104E01AB1012A06D01F
:10042000022A03D1C96AC90100D5012010BDC96AD9
:10043000A142FAD010BD002AF7D0012AF2D0022A38
:10044000F3D0032AF3D010BD30B50468256825F435
:1004500080252560046863608368402B036803D0AF
:1004600099600068C26030BD9A600068C16030BDAC
:1004700070477047002200F001B8000030B50E4B05
:10048000054601209C7B022C15D2987B00241C542D
:10049000987B03EB800045609D7B03F10C002A54A0
:1004A000987B421C9A73303008703A2048702F2095
:1004B0008870CC70002030BD443300202DE9FE430D
:1004C0000D4607464FF4805801227C497C4804F0D1
:1004D0000FFB030006D040F225127AA17DA003F0A5
:1004E00099FAE9E0082005F039FA040017D000264F
:1004F0007248266066600068206039462046FFF733
:10050000B4FE01222146804804F01EFB03000DD0FA
:1005100040F237126BA17DA003F07CFA30E04FF47B
:10052000967268A186A003F075FAC0E0764840F2A2
:100530003F1264A1C76890A03B4603F06BFA002FFE
:100540001ED04FF4A4725FA195A003F063FAB146E8
:100550004046029605F002FA060015D04146FFF724
:1005600079FE02AB42463146674804F0FFFB0300C8
:1005700015D04FF4AE7253A195A003F04BFA24E0CE
:10058000614804F083F990E040F24F124DA19DA024
:1005900003F040FAF4E7002EC7D0304647E0029857
:1005A000294682B2304603F079F941463046FFF7DA
:1005B00051FE029805444045D3D0BD420ED04FF4C1
:1005C000B77240A19DA003F025FA4F4804F05EF9F0
:1005D000002CE0D0204604F0BFFEDCE740F27712AA
:1005E00038A1A2A003F016FA16B1304604F0B4FE0A
:1005F00040F27B1233A1ABA003F00CFA00274E4669
:10060000CDF8009039464048CDF8049004F052F9F6
:1006100002AB012269463C4804F0A8FB030009D064
:1006200040F2871227A16AA003F0F4F939E004F040
:1006300093FE3CE0029801281BD040F2A11221A1B8
:10064000A4A003F0E7F9304804F020F914B12046E3
:1006500004F082FE01221949002004F049FA2B46D9
:1006600040F2A71217A1A6A003F0D4F92846BDE8CE
:10067000FE830122394601A803F048F89DF80000E6
:100680009DF80410884206D102988DF800608DF81C
:1006900004600744BCE74FF4CD720AA1A3A003F0A5
:1006A000B9F9194804F0F2F80CB12046BFE701226D
:1006B0000249002004F01CFA0020D8E715000020B1
:1006C000480000202E2E2F5372632F6D61696E2E0D
:1006D0006300000046696C653A25733B204C696EE7
:1006E000653D25643B202D3E206572726F7220A30C
:1006F000BA665F6D6F756E745F53443A20726573AE
:10070000203D2025640D0A008010002046696C659C
:100710003A25733B204C696E653D25643B202D3E98
:10072000206572726F7220A3BA665F6F70656E5F2C
:1007300053443A20726573203D2025640D0A000061
:1007400046696C653A25733B204C696E653D2564AE
:100750003B202D3E206572726F7220A3BA757365BF
:10076000725F73645F70617468CEB4C9EAC7EBB33B
:10077000C9B9A6210D0A000046696C653A25733B8C
:10078000204C696E653D25643B202D3E2066696CDA
:10079000655F73697A65203D2025640D0A000000BD
:1007A00046696C653A25733B204C696E653D25644E
:1007B0003B202D3E2053504920466C617368D5FD87
:1007C000D4DAD0B4C8EBCEC4BCFE2E2E2E0D0A0057
:1007D00046696C653A25733B204C696E653D25641E
:1007E0003B202D3E206572726F7220A3BA665F7245
:1007F0006561645F53443A20726573203D2025642F
:100800000D0A000046696C653A25733B204C696E01
:10081000653D25643B202D3E206572726F7220A3DA
:10082000BA726561645F627566666572CEB4C9EA64
:10083000C7EBB3C9B9A6210D0A00000046696C6573
:100840003A25733B204C696E653D25643B202D3E67
:100850002053504920466C617368D0B4C8EBCAA7D6
:10086000B0DC21212121210D0A00000046696C65C0
:100870003A25733B204C696E653D25643B202D3E37
:100880002053504920466C617368D0B4C8EBCDEA60
:10089000B3C92CBFAACABCD0A3D1E92E2E2E0D0AF3
:1008A0000000000046696C653A25733B204C696E78
:1008B000653D25643B202D3E2053504920466C6108
:1008C0007368D5FDD4DAD0A3D1E9CEC4BCFE2E2EF8
:1008D0002E0D0A0046696C653A25733B204C696E03
:1008E000653D25643B202D3E2053504920466C61D8
:1008F0007368D0A3D1E9CDA8B9FD2121210D0A004B
:1009000046696C653A25733B204C696E653D2564EC
:100910003B202D3E20BDD3CFC2C0B4B5C4B5D8D680
:10092000B7CAC72025640D0A0000000046696C653F
:100930003A25733B204C696E653D25643B202D3E76
:100940002053504920466C617368CEC4BCFED3EB83
:10095000D4B4CEC4BCFEB2BBCDAC2121210D0A0063
:1009600010B540F2BB1207A10AA003F053F802F041
:100970008BFEBDE8104040F2BD1202A110A003F0B2
:1009800049B800002E2E2F5372632F6D61696E2EB1
:100990006300000046696C653A25733B204C696E24
:1009A000653D25643B202D3E20BFAACABCBDF8D0C2
:1009B000D0D0BEC6ACB2C1B3FD2E2E2E0D0A0000A3
:1009C00046696C653A25733B204C696E653D25642C
:1009D0003B202D3E20D0BEC6ACB2C1B3FDBDE1CAA6
:1009E000F82121210D0A000070B50D460446C829E2
:1009F00000D9C825284604F0B1FF06462946FFF76E
:100A000029FCAAB22146304602F080FE40F2D912FB
:100A10000FA113A002F0FEFF33464FF4ED720CA1BC
:100A200019A002F0F7FF40F2DB1209A11DA002F0AD
:100A3000F1FF002405E0325D214624A002F0EAFF28
:100A4000641CAC42F7D33046BDE8704004F084BC6F
:100A50002E2E2F5372632F6D61696E2E630000007E
:100A600046696C653A25733B204C696E653D25648B
:100A70003B202D3E20B6C1B3F6B5C4CAFDBEDDCEC7
:100A8000AA3A0D0A0000000046696C653A25733BDE
:100A9000204C696E653D25643B202D3E2025730D5D
:100AA0000A00000046696C653A25733B204C696E6C
:100AB000653D25643B202D3E203136BDF8D6C6B5B8
:100AC000C4CAFDD7E9CEAA3A0D0A00007278627551
:100AD00066665B25645D203D2030782530325820E5
:100AE0000A000000406D70472DE9F84304464FF0BE
:100AF0000009CDF8009063484FF41651A56D0068C9
:100B0000B0FBF1F72E6894F85C10082000FA01F1B0
:100B100031420FD021680A6852070BD50A6822F0CB
:100B200004020A6094F85C108840A860606D40F090
:100B30000100606594F85C104FF0010808FA01F0BC
:100B4000304208D021684969090604D5A860606D63
:100B500040F00200606594F85C1004208840304248
:100B600008D021680968890704D5A860606D40F045
:100B70000400606594F85C1010208840304218D062
:100B800021680968090714D5A8602068016849032D
:100B900004D50068000308D5A16C07E00168C90509
:100BA00003D4016821F008010160216C09B12046DD
:100BB000884794F85C1020208840304231D021686A
:100BC0000968C9062DD5A86094F835000528206865
:100BD000016806D0490347D5006800031DD4616C45
:100BE0001CE021F0160101602068416921F08001BC
:100BF0004161206C08B9A06C20B12068016821F027
:100C00000801016094F85C103F208840A86084F8D7
:100C1000349084F83580216D1FE0E16B09B12046E6
:100C20008847606D00282BD0606DC00714D0052068
:100C300084F835002068016821F001010160009806
:100C4000401C0090B84203D820680068C007F6D165
:100C500084F8349084F83580E16C002910D001B01C
:100C60002046BDE8F04308470168C905D5D40168AE
:100C700021F01001016084F8349084F83580CCE7CD
:100C8000BDE8F883280000202DE9F041044600F07B
:100C9000A3F906465CB1002584F83450022084F89C
:100CA00035002068016821F0010101600DE001209C
:100CB000BDE8F08100F090F9801B052805D92020BF
:100CC0006065032084F83500F2E720680068C007FB
:100CD000F0D12268116820480140D4E9010318438B
:100CE000D4E903363343184363691843A3691843AF
:100CF000E3691843236A18430843616A042903D14E
:100D0000D4E90B1319430843106020684069666AF0
:100D100020F0070130460E43012704280CD1A06AB9
:100D20000643E06A40B12046FFF764FB20B1402053
:100D3000606584F83570BAE7206846612046FFF7A1
:100D400045FB94F85C203F2191408160656584F803
:100D500035700020ACE700003F8010F02DE9F04135
:100D60000446866D90F83400002501280DD001203E
:100D700084F8340094F835700020012F07D084F8EF
:100D8000340002252846BDE8F0810220FBE7022757
:100D900084F8357060652046FFF756FB94F85C10C8
:100DA0003F208840B0602068016841F01601016072
:100DB000206C20B12068016841F0080101602068C2
:100DC000016841F001010160DCE7000070B50446F4
:100DD00000F002F90546601C02D004480078044483
:100DE00000F0FAF8401BA042FAD370BD1C000020AE
:100DF0002DE9F84F00224FF0010803254FF00F0EA8
:100E00000B6808FA02F42340A3426ED14E68012E0B
:100E100005D0022E03D0112E01D0122E12D18668D9
:100E20004FEA420C05FA0CF7BE43CF6807FA0CF7FD
:100E3000374387604668A6430C79C4F30014944096
:100E400034434460C668570005FA07FC8C6826EAFC
:100E50000C06BC403443C4604C68022C01D0122CF8
:100E600013D1D40800EB8404A346D4F8209054078F
:100E70004FEAD46A0EFA0AF629EA06090E6906FA5A
:100E80000AF646EA0906CBF8206004680E7924EADF
:100E90000C0406F00306BE40264306604C68E400DE
:100EA0006FD53B4C266846F480462660246822F0C5
:100EB000030604F480440094364C3444A446D4F829
:100EC00008489607360F0EFA06F7BC43324FB84271
:100ED00001D100272EE0314FB84201D1012729E08E
:100EE0002F4FB84202D1022724E04AE02D4FB842EA
:100EF00001D103271EE02C4FB84201D1042719E08D
:100F00002A4FB84201D1052714E0294FB84201D138
:100F100006270FE0274FB84201D107270AE0264FE6
:100F2000B84201D1082705E0244FB84201D1092772
:100F300000E00A27B7402743CCF80878204E3468F1
:100F40004F689C43FF0300D51C4334601C4E361D84
:100F500034684F689C43BF0300D51C433460184E6F
:100F6000083634684F689C43FF0200D51C43346048
:100F7000134E0C3634684F689C43BF0200D51C43A7
:100F80003460521C102AFFF43BAFBDE8F88F00001C
:100F9000443802400030014000000240000402409A
:100FA00000080240000C0240001002400014024001
:100FB00000180240001C02400020024000240240B1
:100FC000003C01400069084000D0012070470AB190
:100FD000816170470904FBE70148806870470000A1
:100FE0001C0000200248816802781144816070472B
:100FF0001C0000200B4810B5016841F4007101602D
:10100000016841F480610160016841F48071016010
:10101000032000F089F8002000F006F800F03EF808
:10102000002010BD003C024010B5014688B00022EF
:10103000372000F059F8372000F048F81348002412
:10104000016841F020010160006805A900F020005E
:101050000690684600F04CF900F06AF90C4940002F
:10106000B0FBF1F10C480B4A491E026040F2E73236
:10107000C0E90324C0E9011401F067F810B10120B0
:1010800008B010BD044801F07CF8F9E74038024090
:1010900040420F0000140040E42200200A4808B536
:1010A000016841F480410160006800F480400090D4
:1010B0000548001F016841F080510160006800F0A0
:1010C0008050009008BD000044380240002809DB31
:1010D00000F01F02012191404009800000F1E02052
:1010E000C0F8001170470000F0B40E4B1B680C46AE
:1010F000C3F30223C3F10705042D00D90425191DEC
:10110000072901D2002300E0DB1E012606FA05F1C3
:10111000491E214099409E40761E16403143F0BC46
:1011200002F088BC0CED00E0064900F007020868F8
:101130004FF6FF03184040EA0220034A10430860BC
:10114000704700000CED00E00000FA052DE9F843BF
:101150001748016841F0805101600068154F00F0A8
:101160008050012600903E64FFF736FF05464FF49D
:101170007A78114C05E000BFFFF72EFF401B404579
:101180000DD86068C003F7D57E64FFF725FF0546DC
:10119000464607E0FFF720FF401BB04202D903207C
:1011A000BDE8F88360688003F4D50020F8E700000C
:1011B0004038024000000E42007000402DE9F04728
:1011C0000E46050065D0DFF81481D8F80000F7B2AC
:1011D00000F00F00B04207D288F80070D8F8000085
:1011E00000F00F00B04254D128683D4C810712D561
:1011F000400703D5206840F4E050206028780007BD
:1012000003D5206840F4604020602068A96820F081
:10121000F000084320602878C0072DD03049686866
:101220000839012812D0022813D0032811D00968E8
:10123000890700292DDA216821F00301014321608B
:10124000FFF7CAFE814641F2883A0EE00968890339
:10125000EFE709688901ECE7FFF7BEFEA0EB0901A3
:10126000514502D90320BDE8F0872068696800F085
:101270000C00B0EB810FEFD1D8F80010404601F020
:101280000F01B14207D90770006800F00F00B042AB
:1012900001D00120E7E72878400705D52068E968F4
:1012A00020F4E050084320602878000706D5206825
:1012B000296920F4604040EAC100206000F058F83D
:1012C0002168084AC1F30311515CC840064908600F
:1012D00006480068FFF7A8FE0020C4E7003C024073
:1012E000083802403C5D0008280000202000002053
:1012F0000F2202600C4A136803F003034360136873
:1013000003F0F0038360136803F4E053C3601268D2
:101310004FF4E05303EAD20202610448006800F08F
:101320000F0008607047000008380240003C02408F
:101330000448054900680968044AC1F38221515CE8
:10134000C840704728000020083802404C5D000863
:101350000448054900680968044AC1F34231515CF8
:10136000C840704728000020083802404C5D000843
:10137000154810B5006810F00C02144813D0144939
:10138000042A0FD0082A0ED10F4C241F226823688C
:1013900002F03F025B0207D52068C0F38810A0FB73
:1013A000010106E0084610BD2168C1F38811A1FBC8
:1013B00000010023FEF716FF2168C1F30141491C1B
:1013C0004900B0FBF1F010BD083802400024F400E1
:1013D00040787D012DE9F84F04006ED02078DFF8C9
:1013E0003C93C007A9F104054AD009F10400016843
:1013F000C1F38101012908D00068C0F381000228EF
:101400000AD1D9F80000400206D52868800337D5F4
:1014100060680028E1D033E06068B0F5803F10D00C
:10142000B0F5A02F286810D020F4803028602868FC
:1014300020F4802028606068A8B1FFF7CDFD064643
:101440000DE0286840F48030F4E740F48020286004
:10145000F7E700BFFFF7C0FD801B642873D828683A
:101460008003F7D50CE0FFF7B7FD064605E000BFA7
:10147000FFF7B2FD801B6428F0D828688003F7D4FA
:101480002078DFF89C8280074FF0000A3ED5A34801
:10149000001D016811F00C0F08D00068C0F3810036
:1014A00002280BD1D9F80000400207D42868800731
:1014B00016D5E068012800D112E02BE1E068B8B150
:1014C0000120C8F80000FFF787FD064605E000BFD1
:1014D000FFF782FD801B0228C0D828688007F7D557
:1014E0002868216920F0F80040EAC10028600DE07A
:1014F000C8F800A0FFF770FD064604E0FFF76CFD9A
:10150000801B02281FD828688007F7D4207800079E
:1015100022D5824E83486169703671B10121016024
:10152000FFF75AFD074604E0FFF756FDC01B0228EF
:1015300009D830688007F7D50EE0C0F800A0FFF7A3
:101540004BFD074605E082E0FFF746FDC01B022881
:101550007DD830688007F7D42078400768D5DFF859
:10156000BCB100270BF13C0BDBF80000C0000BD432
:10157000DBF8001041F08051CBF80010DBF80000E0
:10158000012700F080500090674E3068C00510D4ED
:10159000306840F480703060FFF71EFD009005E079
:1015A000FFF71AFD0099401A022850D83068C0058C
:1015B000F6D55A4EA0686C3601280FD00528306841
:1015C00010D020F001003060306820F0040030605E
:1015D000A068B8B1FFF700FD00900FE0306840F060
:1015E0000100F4E740F004003060F7E7FFF7F4FC97
:1015F0000099411A41F28830814266D830688007EC
:10160000F4D50EE0FFF7E8FC009007E0FFF7E4FCFC
:101610000099411A41F28830814256D830688007DB
:10162000F4D42FB1DBF8001021F08051CBF800107A
:10163000A069C8B33949091D0968C1F381010229AC
:101640004AD00228504607D0C8F8600000E03CE0CD
:10165000FFF7C2FC04463BE04746C8F86000FFF7CE
:10166000BBFC064605E000BFFFF7B6FC801B022866
:101670002BD828688001F7D4D4E907010843A16A70
:101680002A4A490802EB0141626A41EA8211084391
:1016900094F82C1040EA0161C9F800100120386666
:1016A000FFF79AFC044606E036E000BFFFF794FC23
:1016B000001B022809D828688001F7D52CE000BF5C
:1016C000FFF78AFC001B022802D90320BDE8F88F2F
:1016D00028688001F4D41FE00128F7D0D9F8000071
:1016E000E26900F48001914214D1226A00F03F01C6
:1016F00091420FD147F6C071626A0140914209D10F
:10170000A26A00F44031914204D1E16A00F07060B5
:10171000884201D00120D9E70020D7E704380240F1
:1017200000004742800E4742007000400000FFFF6B
:101730002DE9FE43044603200F4684F83400606C14
:1017400003285AD0B7F5805F57D04FF400660025C4
:101750004FF08068B7421CD10095019500212068A8
:1017600001F00DF8800121D46946204601F0A4FB68
:1017700098BB0198400332D5B4F8500001042068AA
:1017800001F02DF848BB0221206822E0A06B28431D
:1017900027E01FB1A06B40F0006022E000950195AA
:1017A0000021206800F0EBFF800101D53546EDE710
:1017B0006946204601F080FB78B90198C0030ED538
:1017C000B4F850000104206801F009F828B900219C
:1017D000206801F050F80028D8D00546D6E74546E5
:1017E000D4E7A063A06B012558B121680C48886339
:1017F00084F834500120BDE8FE83A06B40F0805097
:10180000EFE7211DD4E905060EC90097CDE90106D1
:10181000206800F0B7FF84F834500020EBE70000A8
:10182000FF05400070470000F0B5426E920F0A704D
:10183000426EC2F383624A70426EC2F301628A70E2
:10184000426E120CCA70B0F86420120A0A7190F845
:1018500064204A71826E120DCA80826EC2F3034206
:101860000A72B0F86820C2F3C0324A72B0F8682039
:10187000C2F380328A72B0F86820C2F34032CA7272
:10188000B0F86820C2F300320A7300264E73426C2F
:101890004FF40075012462B1012A3AD00268474929
:1018A0009163816B41F08051816380F83440012065
:1018B000F0BDB0F86820C36E9205120D42EA937233
:1018C0000A61C26EC2F3C2620A75C26EC2F30262DC
:1018D0004A75C26EC2F342528A75C26EC2F3824228
:1018E000CA75C26EC2F3C2320A760A69521C4265D8
:1018F0000B7E03F007039B1C9A4042650B7A03F0B2
:101900000F0704FA07F383655B0A5A43C0E91725FA
:101910000EE090F86820C36E9206920A42EA1342E3
:101920000A610A69521C92024265C0E916520566B4
:1019300030F86C2FC2F3803201F8192F0288C2F3FD
:10194000C6124A70027802F07F028A704268D20F93
:10195000CA704268C2F341720A714268C2F382627D
:101960004A714268C2F383528A714268C2F340529C
:10197000CA710E724268C2F300424A728288C2F390
:10198000C0328A728288C2F38032CA728288C2F3FD
:1019900040320A738288C2F300324A738288C2F3EB
:1019A00081228A738288C2F30122CA730079C0F34C
:1019B000460008744C740020F0BD0000FF05400094
:1019C000426C0A60826C4A60C26C8A60026DCA60B6
:1019D000426D0A61826D4A61C26D8A61006EC861A2
:1019E0000020704770B50446B0F85000002501048F
:1019F000206801F04AF818B1A16B0143A16304E02B
:101A00000021206800F0BBFE0546C5F3432070BDF1
:101A100070B504000ED094F83400002518B925776D
:101A2000204600F03BF8032084F83400204600F004
:101A30000BF808B1012070BDA5632563012084F86F
:101A40003400002070BD0000FEB50025044676205D
:101A50000095CDE9015029460B460A46206800F062
:101A600091FE08B10120FEBD0B4E46F8A05F206834
:101A700000F09AFE01253560204601F0FFFA20B9FA
:101A8000204601F083FA0028EDD084F83450A16B91
:101A90000143A163E6E70000008025422DE9F04FF5
:101AA00087B0054614216846FEF7D4FB41492868F3
:101AB00088427CD1404800683F4940F4006008609B
:101AC000086800F4006005903B48143800683A4903
:101AD00040F0040014390860086800F00400059024
:101AE000086840F0080008600868022400F0080058
:101AF00005904FF4F850CDE9000402AA0020032617
:101B00004FF00C0882E8410169462C48FFF770F954
:101B100002AA002082E841010427CDE90074694649
:101B20002748FFF765F9284C26484FF00068C4E9BC
:101B3000000800204FF48069A060C4E90309B802DE
:101B40004FF4804BC4E9050BC4E909764FF0200A35
:101B50000020C4E907A07E05B7102046C4E90B6742
:101B6000FFF792F808B1FEF784FC2C64A563164CCD
:101B7000144860344830C4E900084020A0600020C8
:101B8000C4E90309C4E907A00420606204F1280243
:101B9000032082E8C1004FF48051C4E9051B2046B0
:101BA000FFF772F808B1FEF764FCEC63A56307B0B9
:101BB000BDE8F08F002C014044380240000802408C
:101BC000000C024058640240342100202DE9F04707
:101BD00086B01F460446154639B194F834000128F2
:101BE00007D0022006B0BDE8F087A06B40F000608F
:101BF00008E00020A063E36DEA199A4204D9A06BC3
:101C000040F00070A0636FE0032284F83420226863
:101C10008246D0622268D36B40F22A363343D363C4
:101C2000236C324A4FEA4729DA63236C304ADA647C
:101C3000226C4FEA9903106520680A46266C00F171
:101C400080013046FFF78AF8DFF8A880012660B1EE
:101C50002068C16B21F49571C1632168C1F8388097
:101C6000A06B40F08040A06311E023480660606CE8
:101C7000012800D06D024FF40071206800F0E2FDF1
:101C800040B12268C2F83880A16B0143A16384F897
:101C9000346029E04FF0FF30CDE900099020029038
:101CA00002200596CDE9030AD1466946206800F076
:101CB00050FD012F06D9822020632946206800F0BC
:101CC00055FE05E0812020632946206800F067FE6C
:101CD000002887D02268C2F83880A16B0143A16335
:101CE00084F83460C4F8309001207BE7692E000846
:101CF000052E0008FF0540008C85254210B5FEF733
:101D000043FB10BD2DE9FF4F87B0044608981F46DE
:101D1000164638B194F83400012807D002200BB0E1
:101D2000BDE8F08FA06B40F0006008E00025A563DF
:101D3000E16DF019884204D9A06B40F00070A063F7
:101D400061E0032084F834002068C5622068C16B1C
:101D500040F21A2A41EA0A01C163E16B3248C863C2
:101D6000E16B3248C864E06B0565606C012800D007
:101D700076024FF40071206800F064FDDFF8B09047
:101D80004FF0010840B12268C2F83890A16B0143BE
:101D9000A16384F8348036E04FF0900B012F06D910
:101DA000A02020633146206800F0BAFE05E0C4F8A8
:101DB00030B03146206800F0CCFE40B12268C2F855
:101DC0003890A16B0143A16384F834801AE019486C
:101DD0004646C0F8008022687F02BB08E06B803274
:101DE0000899FEF7BBFF80B12068C16B21EA0A01A8
:101DF000C1632168C1F83890A06B40F08040A063B7
:101E000084F834602563012089E74FF0FF30CDE985
:101E10000007CDE902B5CDE904566946206800F017
:101E200098FC00207BE70000AB2E0008052E000880
:101E3000FF0540008C85254270B5040005D00025C3
:101E4000A56294F8510010B106E0012070BD84F83D
:101E50005050204600F030F8022084F851002068ED
:101E6000016821F040010160D4E901010843D4E98F
:101E700003121143084361690843218B01F4007187
:101E80000843E1690843216A0843A16A08432168BD
:101E90000860A069042101EA1040616A08432168D2
:101EA00048602068C16921F40061C1616565012055
:101EB00084F85100002070BDF0B587B004461421AD
:101EC0006846FEF7C7F92348214F266800252149B7
:101ED0001438022203230524BE4217D10E6846F4AB
:101EE00080560E60096801F480510591016841F047
:101EF000010101600068694600F001000590E020E2
:101F00008DE82500CDE9033413481CE0134DAE42A3
:101F10001BD10D6845F480150D60096801F480112E
:101F20000591016841F020010160006802AD00F0F8
:101F3000200005904FF46070CDE90002012085E893
:101F4000190069460648FEF753FF07B0F0BD0000D0
:101F5000003001404438024000000240005001407F
:101F6000001402402DE9F84F044690F85000002775
:101F70000A9E1D4692468B464FF0010901280ED05D
:101F8000012084F85000FFF727F8804694F85100AC
:101F9000616801280CD0B1F5827F07D102E00220F0
:101FA000BDE8F88FA16809B9042801D00227C2E072
:101FB000BBF1000F27D0BAF1000F24D01DB394F865
:101FC0005100042802D0052084F8510000206065EB
:101FD000C4F838A0E587A587C4F830B0E586A586A3
:101FE0002064606420680168490603D4016841F0F8
:101FF00040010160E068B0F5006F606805D0E8B3AB
:10200000012D46D07FE0012795E008B1012D39D19F
:10201000206B21680088C860206B801C2063E08EE4
:10202000401EE0862EE02068816889070FD5E18E8A
:1020300069B1B9F1010F0AD1216B0988C160206B28
:10204000801C2063E08E401EE0864FF0000920686F
:102050008168C9070CD0E18F51B1C068A16B0880BD
:10206000A06B801CA063E08F401EE0874FF0010949
:10207000FEF7B2FFA0EB0800B04200E009E001D398
:10208000701C50D1E08E0028CDD1E08F0028CAD13D
:102090003FE0206B216800780873206B401C2063B0
:1020A000E08E401EE0862EE02068816889070FD50B
:1020B000E18E69B1B9F1010F0AD1216B0978017381
:1020C000206B401C2063E08E401EE0864FF000092C
:1020D00020688168C9070CD0E18F51B1C068A16B3D
:1020E0000870A06B401CA063E08F401EE0874FF09B
:1020F0000109FEF771FFA0EB0800B04202D3701C8B
:1021000001D010E07EB1E08E0028CDD1E08F002814
:10211000CAD142463146204601F0BAF828B101271B
:102120002020606507E0032705E0A06818B9206853
:10213000C16880680090012084F85100002084F874
:10214000500038462CE77047704710B5040003D0A4
:1021500094F83D0010B107E0012010BD002084F884
:102160003C00204600F00CF8022084F83D00211DC0
:10217000206801F05DF9012084F83D00002010BDC9
:1021800070470168CA6842F00102CA60006881684D
:1021900001F00701062903D0016841F00101016047
:1021A00000207047704770B50446006801694FF021
:1021B0000005C943890715D4C168C943890711D4EB
:1021C000E91E016101202077206880698007204690
:1021D00002D0FFF7E7FF04E000F098F8204600F097
:1021E00096F8257720680169C943490717D4C16863
:1021F000C943490713D46FF004010161022020771D
:102200002068806910F4407F204602D0FFF7CAFFA3
:1022100004E000F07BF8204600F079F8257720688C
:102220000169C943090716D4C168C943090712D413
:102230006FF008010161042020772068C0698007E1
:10224000204602D0FFF7AEFF04E000F05FF8204622
:1022500000F05DF8257720680169C943C90617D4E5
:10226000C168C943C90613D46FF010010161082089
:1022700020772068C06910F4407F204602D0FFF725
:1022800091FF04E000F042F8204600F040F8257786
:1022900020680169C943C90708D1C168C943C90792
:1022A00004D1891E0161204600F032F820680169DE
:1022B000C943090609D4C168C943090605D46FF0AA
:1022C000800101612046FFF73EFF20680169C94394
:1022D000490609D4C168C943490605D46FF04001D5
:1022E0000161204600F01EF820680169C943890693
:1022F0000BD4C168C943890607D46FF0200101617E
:102300002046BDE87040FFF71FBF70BD70477047A3
:1023100000680349884201D1FEF764BE704700009F
:1023200000140040704770B5040004D094F83900E0
:10233000002510B106E0012070BD84F83850204619
:1023400000F022F8242084F839002068C16821F4C4
:102350000051C160204601F0CFF82068016921F4E6
:10236000904101612068416921F02A0141612068A2
:10237000C16841F40051C160E563202084F8390050
:1023800084F83A00002070BD10B586B004461421D0
:102390006846FDF75FFF14492068884221D1134841
:1023A0000021026842F010020260006800F0100094
:1023B00005900E481438026842F00102026000687D
:1023C00000F0010005904FF4C06000900220CDE9BC
:1023D0000101032003900720049069460448FEF79A
:1023E00007FD06B010BD0000001001404438024057
:1023F000000002402DE9F843044690F839001F46DA
:1024000016460D46202850D1B5B1AEB194F838002B
:1024100001284AD0012084F838004FF00008C4F8A1
:102420003C80212084F83900FEF7D6FDA684814641
:10243000E68484F8388026E00120BDE8F883E08C4B
:10244000401EE084A0684B46B0F5805F4FF000026C
:102450004FF080012046009703D001F0E1F8E8B981
:102460000DE001F0DDF8C8B928882168C0F3080044
:102470004860206908B16D1C05E0AD1C03E02168CF
:1024800015F8010B4860E08C0028D8D14B4600229B
:1024900040212046009701F0C3F808B10320CCE7A3
:1024A000202084F839000020C7E70220C5E7FEE7B6
:1024B0000D4808B5016841F4800101600068002200
:1024C00000F48000009011463B20FEF70DFE3B20FB
:1024D000FEF7FCFD002211464520FEF705FEBDE893
:1024E00008404520FEF7F2BD3038024010B50449DF
:1024F0000448FDF7BFFF0249491E087010BD0000E7
:1025000015000020205D00082DE9F04F87B0142150
:102510006846FDF79FFE4D480024016841F0040124
:102520000160016801F004010591016841F020019A
:102530000160016801F020010591016841F080010E
:102540000160016801F080010591016841F001011D
:102550000160016801F001010591016841F002018B
:102560000160016801F002010591016841F0080174
:1025700001600068364E00F00800059001224021FD
:102580003046FEF724FDDFF8CC80002241F61041F2
:102590004046FEF71CFDDFF8C0900022102148469F
:1025A000FEF715FDDFF8B4A04FF4005700223946BE
:1025B0005046FEF70CFDDFF8A8B000222021584657
:1025C000FEF705FD40200125CDE900050220CDE9FB
:1025D000025069463046FEF70BFC10260096CDE906
:1025E0000154694640460394FEF702FC0096CDE98B
:1025F0000154694648460394FEF7FAFB4FF4E05055
:10260000009011200394CDE9010569464046FEF78C
:10261000EFFB0097CDE90154694650460394FEF75D
:10262000E7FB2802CDE90004694648460294FEF71C
:10263000DFFB20200090CDE9015469465846039401
:10264000FEF7D6FB07B0BDE8F08F0000303802403F
:1026500000140240001C024000000240000402403E
:10266000000C02400648054901600021416081607C
:10267000C16001614161816170470000002C01402F
:10268000B0200020104810B50E4901604FF482714F
:102690004160002102228160C0E9031201224261EF
:1026A000520282612822C0E90721416281620A2127
:1026B000C162FFF7C1FB002803D0BDE81040FDF761
:1026C000D8BE10BD00300140F4210020104810B5E4
:1026D0000E4901604FF48271416000210222816045
:1026E000C0E9031201224261520282610822C0E95C
:1026F0000721416281620A21C162FFF79DFB002828
:1027000003D0BDE81040FDF7B4BE10BD005001403D
:102710004C2200200C4810B50A4901604FF4E13109
:102720004160002181600C22C160C0E90412816116
:10273000C161FFF7F8FD002803D0BDE81040FDF7A8
:1027400098BE10BD00100140A4220020FEE7704793
:1027500070470A6842624A688262D1E902231A43DA
:10276000D1E904310B43C16A1A4321F0F701114347
:10277000C16200207047006800F003007047084401
:102780004069704770B50DF1100C11439CE8700062
:102790002343194329434268314347F6FF639A4371
:1027A0000A434260002070BD10B503210160022081
:1027B000FEF70CFB002010BDD0F8800070470A68BF
:1027C0008260D1E901231A43D1E903310B43C16887
:1027D0001A436FF30B011143C1600020704710B51D
:1027E00086B004463720CDE900104020029000203A
:1027F00003904FF48060049069462046FFF7DFFFA6
:1028000041F288323721204600F0BCF906B010BDF5
:1028100010B504460A4886B001432920CDE90010CE
:1028200040200290002003904FF48060049069469D
:102830002046FFF7C4FF204600F05CFA06B010BD4A
:102840000000108010B586B004461020CDE90010BD
:1028500040200290002003904FF48060049069466D
:102860002046FFF7ACFF41F288321021204600F0ED
:1028700089F906B010BD10B586B004460620CDE932
:10288000001040200290002003904FF480600490DC
:1028900069462046FFF793FF41F288320621204621
:1028A00000F070F906B010BD30B585B000240546C3
:1028B000009401944FF480600294CDE9034069468E
:1028C0002846FFF77CFF0B484FF4FA510068B0FB35
:1028D000F1F041F288314843401E03D24FF00040EE
:1028E00005B030BD696B0906F6D5C520A863204642
:1028F000F6E700002800002070B585B004464FF4CC
:10290000D570009001A908204025002681E86100CB
:10291000C001049069462046FFF751FF12484FF46A
:10292000FA510068B0FBF1F041F288314843401E93
:1029300003D24FF0004005B070BD616B11F0450F40
:10294000F5D00905F3D4606B400701D5042003E0FE
:10295000606BC00702D00120A063ECE7606B40060B
:1029600000D5A5633046E6E72800002010B586B004
:1029700004461220CDE90010402002900020039070
:102980004FF48060049069462046FFF718FF41F23B
:1029900088321221204600F0F5F806B010BD10B5BF
:1029A00086B004461120CDE900104020029000209E
:1029B00003904FF48060049069462046FFF7FFFEC5
:1029C00041F288321121204600F0DCF806B010BD3B
:1029D00010B586B004460720CDE9002040200290C3
:1029E000002003904FF48060049069462046FFF772
:1029F000E6FE41F288320721204600F0C3F806B017
:102A000010BD10B586B0044600210220CDE90010AB
:102A1000C020CDE902014FF4806004906946204651
:102A2000FFF7CDFE204600F03DF906B010BD10B511
:102A300086B004460920CDE90010C0200290002095
:102A400003904FF48060049069462046FFF7B7FE7C
:102A5000204600F027F906B010BD10B586B0044638
:102A600000213320CDE900104020CDE90201000112
:102A7000049069462046FFF7A2FE41F288323321D6
:102A8000204600F07FF806B010BD10B586B00446B1
:102A90000D20CDE9001040200290002003904FF45B
:102AA0008060049069462046FFF789FE41F2883233
:102AB0000D21204600F066F806B010BD30B585B097
:102AC0000C46054600210320CDE900104020CDE949
:102AD00002010001049069462846FFF770FE224675
:102AE0000321284600F028F905B030BD10B586B0A6
:102AF000044600210C20CDE900104020CDE9020160
:102B00000001049069462046FFF759FE034A0C2154
:102B1000204600F037F806B010BD000000E1F505D2
:102B200010B586B004461920CDE90010402002906F
:102B3000002003904FF48060049069462046FFF720
:102B40003EFE41F288321921204600F01BF806B003
:102B500010BD10B586B004461820CDE90010402005
:102B60000290002003904FF4806004906946204654
:102B7000FFF725FE41F288321821204600F002F8C6
:102B800006B010BD454B10B51B684FF4FA54B3FBAB
:102B9000F4F353435B1E02D24FF0004010BD426B72
:102BA00012F0450FF6D01205F4D4426B520703D54C
:102BB00004218163084610BD426BD20702D0012177
:102BC000816305E0C52282630269D2B28A4201D0E4
:102BD000012010BD0021FFF7D2FD3149084201D18B
:102BE000002010BD002802DA4FF0007010BD410037
:102BF00001D5402010BD810001D5802010BDC1004D
:102C000002D54FF4807010BD010102D54FF4007061
:102C100010BD410102D54FF4806010BDC10102D545
:102C20004FF4006010BD010202D54FF4805010BD7A
:102C3000410202D54FF4005010BD810202D54FF47D
:102C4000804010BDC10202D54FF4004010BD4103C9
:102C500002D54FF4003010BD810302D54FF480201F
:102C600010BDC10302D54FF4002010BD010402D5F0
:102C70004FF4801010BD410402D54FF4001010BD78
:102C8000810402D54FF4800010BD000702D54FF437
:102C9000000010BD4FF4803010BD0000280000205F
:102CA00008E0FFFD12494FF4FA520968B1FBF2F156
:102CB00041F288325143491E02D24FF00040704722
:102CC000426B12F0450FF6D01205F4D4416B490760
:102CD00003D50421816308467047416BC90703D0BF
:102CE0000121816308467047C52181630020704738
:102CF000280000200F494FF4FA520968B1FBF2F1A5
:102D000041F288325143491E02D24FF000407047D1
:102D1000426B12F0450FF6D01205F4D4416B49070F
:102D200003D50421816308467047C52181630020D3
:102D3000704700002800002030B5204B4FF4FA54B3
:102D40001B68B3FBF4F341F2883463435B1E02D289
:102D50004FF0004030BD446B14F0450FF6D0240511
:102D6000F4D4436B5B0703D504218163084630BD6F
:102D7000436BDB0702D00121816303E00369DBB20F
:102D80008B4201D0012030BDC52181630021FFF7B6
:102D9000F6FC10F4604F04D0410406D54FF4005007
:102DA00030BD000C1080002030BD000402D54FF46F
:102DB000805030BD4FF4803030BD0000280000202E
:102DC00010B5064C01202070FDF79EFA18B9207846
:102DD00020F001002070207810BD000008000020C5
:102DE00070B50546FEF7F8F8044603E0FDF78CFAE7
:102DF000002806D0FEF7F0F8001BA842F6D34FF0EB
:102E0000FF3070BD10B5846BFDF76CFE022828D032
:102E1000206C416DE06B406D012901D001281DD16E
:102E20002168104888632068C16B21F49D71C163DB
:102E3000A06B40F08040A0632046FEF7D3FD06283B
:102E400001D0052805D12068FFF750FEA16B08438B
:102E5000A063012084F83400002020632046FEF7A0
:102E6000E1FC10BDFF05400010B5846B206B82288B
:102E700009D12068FFF73AFE28B1A16B0143A16395
:102E80002046FEF7CFFC2068C16A21F00801C1622C
:102E9000216840F23A508863012084F83400002011
:102EA00020632046FEF72AFF10BD806B0068C16BCF
:102EB00041F48071C16370472DE9F04F89B00D4630
:102EC0000446FEF789F800268346009601963746A9
:102ED00008212068FFF7B6FC002834D1B4F8500070
:102EE00001042068FFF77BFC00282CD1401E4FF026
:102EF0000808CDE9020830204FF00209CDE90409A5
:102F00000120CDE9067002A92068FFF722FC2068A5
:102F1000FFF7A3FD002816D1EA4640F22A472068B1
:102F2000416B394212D1416B890204D5FFF744FC51
:102F30004AF82600761CFEF74FF8A0EB0B00401C69
:102F4000EDD14FF0004009B0BDE8F08F416B0907AB
:102F500003D5C0F838800820F5E7416B890703D511
:102F6000C0F838900220EEE7416B890603D5202196
:102F700081630846E7E740F23A518163019800BA5D
:102F80002860009800BA68600020DCE710B590B0B7
:102F900004460120ADF838002068FFF7ECFB00285C
:102FA00054D0606C032842D02068FFF72AFD002827
:102FB0004AD100212068FFF7E2FB60670421206806
:102FC000FFF7DDFBA06708212068FFF7D8FBE0676B
:102FD0000C212068FFF7D3FBC4F88000606C032845
:102FE00025D00EA92068FFF769FD00282CD1606C60
:102FF00003281CD0BDF83800206501042068FFF7C5
:1030000016FD002820D100212068FFF7B8FB60667C
:1030100004212068FFF7B3FBA06608212068FFF7B2
:10302000AEFBE0660C212068FFF7A9FB20670421B6
:103030002068FFF7A4FB000DE06403A92046FEF71B
:10304000F3FB30B14FF0805010B010BD4FF08060F6
:10305000FAE7B4F85000002302042068FFF7B8FC38
:103060000028F1D104F1100007C88DE8070094E8AA
:103070000F00FFF787FB0020E6E700002DE9F84F7F
:103080000026044600963546B0460068FFF70CFC63
:10309000002827D12068FFF72FFC4FF0805B4FF00E
:1030A00001094FF6FF7748B1A6642068FFF7FCFBE3
:1030B000002817D1A06C012802D020E0C4F8489065
:1030C00000212068FFF78BFB58B918E00021206829
:1030D000FFF785FB002805D151462068FFF798FBD4
:1030E00010B15846BDE8F88F00212068FFF747FB74
:1030F00005464FEAD0780098401C009002E0DFF8C7
:103100002CA00098B84202D2B8F1000FDED000988F
:10311000B84202D34FF08070E4E7680002D5C4F8EB
:10312000449000E066640020DCE70000000010C16D
:1031300070B50546FDF7F4F8034C18B92846FFF7BB
:103140003FFE2070207870BD0800002010B51248A6
:1031500088B014460078C00702D0032008B010BD24
:10316000C1B1012905D0022908D003290CD00420BF
:10317000F4E76846FDF7C2F806980AE06846FDF7EE
:10318000BDF80798208005E06846FDF7B7F8079876
:10319000400A20600020E1E7080000202DE9F0410E
:1031A00047F230551C461746884601262846FFF749
:1031B00017FE002826DB224639464046FDF7D6F8A2
:1031C00000BB134C4FF00008C4F80880FDF704FF63
:1031D0000746A06820B9FDF7FFFEC01BA842F8D340
:1031E000A06828B1C4F80880FDF7F6FE044604E0A4
:1031F000012607E0FDF788F838B1FDF7EDFE001B6A
:10320000A842F7D33046BDE8F0810026FAE7000077
:1032100008000020FFF7D4BD2DE9F0471B4C4FF00C
:1032200000081F4691468A460126C4F8048047F2EA
:1032300030552846FFF7D4FD002821DB3A464946A1
:103240005046FDF7A7F8D8B9FDF7C6FE07466068F7
:1032500020B9FDF7C1FEC01BA842F8D3606828B1B1
:10326000C4F80480FDF7B8FE044604E0012607E038
:10327000FDF74AF838B1FDF7AFFE001BA842F7D3BF
:103280003046BDE8F0870026FAE70000080000207D
:1032900038B504461248134B0068B0FBF3F04FF406
:1032A0007A73584300906068B0F5827F0DD10B4669
:1032B000009200228021204600F016F870B1606D67
:1032C00040F020006065032038BD009830B1401EFA
:1032D000009020688068C0430006F6D5002038BD05
:1032E0002800002000366E012DE9F0411D461746EA
:1032F0000E460446DDF8188008E0681C06D0FDF78D
:103300006BFEA0EB0800A8420BD255B12068806884
:1033100036EA000030D00020B842EED10020BDE8EF
:10332000F0812068416821F0E00141606068B0F5FB
:10333000827F0BD1A068B0F5004F02D0B0F5806F4E
:1033400004D12068016821F040010160A06AB0F555
:10335000005F09D12068016821F4005101602068F4
:10336000016841F400510160012084F851000020FF
:1033700084F850000320D2E70120CDE77047704762
:1033800070B592B030216846FCF764FF14210CA898
:10339000FCF760FF1A480025016841F08051016088
:1033A000006800F0805011901648016841F44041D7
:1033B00001600068022400F4404011900120009058
:1033C000000401908001CDE906400F260896D82020
:1033D000CDE9090408200B906846FDF7FBFFFDF7D7
:1033E000B5FE4FF4A050CDE90E50E002CDE90C64DB
:1033F000109005210CA8FDF7E1FE12B070BD000091
:1034000040380240007000400548016841F47001F6
:10341000016003494FF00060803908607047000088
:1034200088ED00E00148FEF7BEBE0000E422002067
:10343000F0B50268254C264D264E274F274B4FF0FE
:10344000804CA04209D0604507D0A84205D0B042C8
:1034500003D0B84201D0984204D122F0700E4A68DD
:1034600042EA0E02A0421BD0604519D0A84217D0F4
:10347000B04215D0B84213D0984211D0184DA8428E
:103480000ED0184DA8420BD0174DA84208D0174DAA
:10349000A84205D0164DA84202D0164DA84203D12D
:1034A00022F44075CA682A434D6922F080022A43FB
:1034B00002608A68C2620A688262A04201D09842B1
:1034C00001D10969016301214161F0BD00000140A2
:1034D0000004004000080040000C004000040140CF
:1034E00000400140004401400048014000180040F5
:1034F000001C0040002000402DE9F0410446006817
:103500000169E26821F44051114301612169A06819
:10351000E26908436169114308432168CA6849F2B6
:103520000C639A430243CA6020684169A26921F48E
:10353000407111434161E069192764253226B0F5D5
:10354000004F354A354920684FF0000806D08842C0
:1035500001D0904236D1FDF7FBFE35E0884201D024
:10356000904202D1FDF7F4FE01E0FDF7E1FE616853
:103570004A18A0FB070148EB0803FCF733FE01469D
:10358000B0FBF5F00201B1FBF5F06FF01803584302
:1035900001EB800006EBC000B0FBF5F000F0F80096
:1035A00002EB4002B1FBF5F0584301EB800006EB63
:1035B000C000B0FBF5F000F00700216810448860FF
:1035C000BDE8F081FDF7B4FE61688B0F8A00A0FBB7
:1035D0000701FCF707FE0146B0FBF5F06FF018029B
:1035E000504301EB800006EB0010B0FBF5F000F05B
:1035F000F002B1FBF5F002EB0012B1FBF5F06FF059
:103600001803584301EB800006EB0010B0FBF5F007
:1036100000F00F00D1E7000000140140001001404D
:103620002DE9F041984617460E460446069D1DE0DA
:10363000681C1BD02DB1FDF7CFFCA0EB0800A84201
:1036400014D92068C16821F4D071C1602068416933
:1036500021F001014161202084F8390084F83A000A
:10366000002084F838000320BDE8F081206800685D
:1036700036EA000004D00020B842D9D00020F3E799
:103680000120F9E7FEE7000010B500F055F900F061
:10369000FDF8094C002210212046FDF798FCC720B8
:1036A00000F092F8012210212046FDF790FCBDE8C1
:1036B000104000F0EBB800000000024010B5114CC3
:1036C000012210212046FDF782FC00F057F80E4938
:1036D0000880A0F56F41183913D1032000F084F859
:1036E000C0070ED1002210212046FDF770FCB72044
:1036F00000F06AF820460122BDE810401021FDF7D5
:1037000066BC10BD000002402C0000202DE9F041F5
:10371000184F15460C460646002210213846FDF784
:1037200056FC032000F050F813480088A0F56F41C4
:10373000183902D1200E00F047F8C4F3074000F01A
:1037400043F8C4F3072000F03FF8E0B200F03CF883
:10375000002405E0FF2000F037F83055641CA4B2C7
:10376000AC42F7D33846BDE8F04101221021FDF705
:103770002EBC0000000002402C00002070B5114D4E
:103780000024224610212846FDF721FC902000F05D
:103790001BF8002000F018F8002000F015F80020B9
:1037A00000F012F8FF2000F00FF844EA0024FF2098
:1037B00000F00AF80443012210212846FDF707FC17
:1037C000204670BD0000024001B582B04FF47A700F
:1037D0000090012301AA02A90248FEF7C3FB9DF84D
:1037E00004000EBDF421002070B5012803D002288A
:1037F00003D0032803D0052402E0352400E015247B
:10380000094D002210212846FDF7E1FB2046FFF775
:10381000DBFFFF20FFF7D8FF0446012210212846D6
:10382000FDF7D5FB204670BD0000024070B50403D3
:1038300000F082F800F02AF8124D002210212846EC
:10384000FDF7C5FB2020FFF7BFFF0F480088A0F55C
:103850006F41183902D1200EFFF7B6FFC4F30740BD
:10386000FFF7B2FFC4F30720FFF7AEFFE0B2FFF7A8
:10387000ABFF012210212846FDF7A9FBBDE87040EF
:1038800000F004B8000002402C00002010B5012018
:10389000FFF7AAFFC007FAD110BD00002DE9F05FC5
:1038A000C1F30B06DFF88C800F0BC6F580548946F8
:1038B00082461546A24200D8144639038B464FF47F
:1038C00080524046FFF722FF002006E0321818F829
:1038D0000210FF2903D1401C80B2A042F6D3A042BF
:1038E00022D23846FFF7A2FF002006E01AF8002097
:1038F0008319401C08F8032080B2A042F6D3594631
:103900004FF480524FEA080000F02AF8A5420FD089
:10391000281BA244A144002685B24FF480547F1C8A
:10392000A542CAD82C46C8E7224649465046EBE78E
:10393000BDE8F09F2423002010B5084C0022102180
:103940002046FDF744FB0620FFF73EFF20460122FC
:10395000BDE810401021FDF73ABB00000000024016
:103960002DE9F0410746C8B2C0F580740E461546F1
:10397000A24200D814464FF4807822463146384699
:1039800000F00EF8A54208D0281B2744264485B233
:103990004446A542F1D82C46EFE7BDE8F08100008F
:1039A0002DE9F04115460C460646FFF7C5FF174FB7
:1039B000002210213846FDF70AFB0220FFF704FF22
:1039C00013480088A0F56F41183902D1200EFFF787
:1039D000FBFEC4F30740FFF7F7FEC4F30720FFF731
:1039E000F3FEE0B2FFF7F0FE002404E0305DFFF7E5
:1039F000EBFE641CA4B2AC42F8D30122102138467D
:103A0000FDF7E5FABDE8F041FFF740BF00000240D6
:103A10002C0000200FB4054B10B503A9044A0298EE
:103A200000F028F810BC5DF814FB000041530008BA
:103A30003C0000200907090E002804DB00F1E0200B
:103A400080F80014704700F00F0000F1E02080F8CB
:103A5000141D704702E008C8121F08C1002AFAD1DD
:103A600070477047002001E001C1121F002AFBD1FE
:103A7000704700002DE9FF4F8DB00F460546002628
:103A800006E025280BD0DDE90F1290476D1C761C4F
:103A900028780028F5D111B03046BDE8F08F002419
:103AA000A246A1460122EC4900E0044315F8013F7B
:103AB000203B02FA03F00842F7D128782A2810D0D8
:103AC0006FF02F022878A0F13001092914D80AEBF1
:103AD0008A0102EB410144F0020400EB010A6D1C73
:103AE000F0E701CF5FEA000A03D544F40054CAF1BD
:103AF000000A44F002046D1C28782E2817D115F80E
:103B0000010F44F004042A280ED06FF02F02287809
:103B1000A0F1300109290AD809EB890102EB410122
:103B200000EB01096D1CF2E757F8049B6D1C287827
:103B30006C280FD006DC4C2817D068280DD06A28D6
:103B400014D104E0742810D07A280FD10DE044F489
:103B500000140AE044F4801401E044F4401469784D
:103B6000814202D104F580146D1C6D1C2A786E2AE6
:103B70001FD00CDC632A31D004DC002A8BD0582AF9
:103B800011D1A3E0642A68D0692A0CD165E0732AB8
:103B90002ED004DC6F2A73D0702A04D19BE0752AE2
:103BA0006FD0782A6ED01046DDE90F129047761C50
:103BB00050E1C4F30250022806D0032809D004289B
:103BC00001CF09D0066045E101CFF117C0E90061DE
:103BD00040E101CF06803DE106703BE117F8040BA0
:103BE0008DF8000000208DF80100EB46012003E075
:103BF00057F804BB4FF0FF3061074FF0000102D4CB
:103C00000DE008F10101884649450FDA8045F8DBEF
:103C10001BF808100029F4D108E008F101018846DA
:103C20008142FADB1BF808100029F6D1DDE90F23E9
:103C3000AAEB08008146214600F036F9304400EB3B
:103C4000080604E0DDE90F121BF8010B9047B8F1FC
:103C50000108F7D221464846F7E00A21C4F302538F
:103C60004FF0000B0891022B04D001CFC117032B9A
:103C700009D00AE0FF1D27F00707F7E8020108E076
:103C800032E01FE020E000B2C117042B01D140B2A6
:103C9000C117031E71F1000307DA4FF0000CD0EBDF
:103CA0000C006CEB01012D2302E0230504D52B232E
:103CB0008DF82430012303E0E30701D02023F7E748
:103CC000984658E00A2110E010210EE010204FF035
:103CD000000B08900CE010214FF0000B44F004049E
:103CE0004FF00809089103E008214FF0000B0891FC
:103CF000C4F30253022B04D001CF0021032B06D0C2
:103D000006E0FF1D27F00707F7E8020103E080B295
:103D1000042B00D1C0B24FF0000823072BD5702A26
:103D200007D0DDF820C08CF0100C5CEA0B0C05D03D
:103D30000EE040238DF82430012308E050EA01030F
:103D400006D030238DF824308DF8252002239846A4
:103D5000DDF820C08CF0080C5CEA0B0C0BD150EAAB
:103D6000010301D1630706D530238DF824304FF0CD
:103D70000108A9F10109582A04D038A20B9208AA17
:103D80000A920BE03AA2F9E75B46089AFCF72AFA96
:103D90000B9B9B5C0A9A521E0A92137050EA010216
:103DA000F2D10A98ADEB000000F1200B600702D5BC
:103DB00024F4803401E04FF00109D94502DDA9EB7C
:103DC0000B0000E0002000EB0B0141440890AAEB3F
:103DD000010AE00306D4DDE90F232146504600F036
:103DE00063F806444FF0000908E009A911F809003A
:103DF000DDE90F12904709F10109761CC145F4DB9A
:103E0000E0030CD5DDE90F232146504600F04CF8C5
:103E1000064404E0DDE90F1230209047761C089933
:103E2000481E08900029F5DC08E00A980A990078F5
:103E3000491C0A91DDE90F129047761CBBF1000185
:103E4000ABF1010BF1DC21465046DDE90F2300F018
:103E500019F806446D1C1BE6092801003031323385
:103E600034353637383961626364656600000000B6
:103E700030313233343536373839414243444546A0
:103E8000000000002DE9F041044600251E461746BB
:103E9000880404D405E039462020B0476D1C641E18
:103EA000F9D52846BDE8F0812DE9F041044600250A
:103EB0001E469046C80301D5302700E0202788041D
:103EC00004D505E041463846B0476D1C641EF9D55F
:103ED0002846BDE8F081000010B504460020E070DF
:103EE000401E6063204601F080FD08B1042010BD33
:103EF00004F2362001F090FBA0F52A41553901D09B
:103F0000032010BD94F83800E92805D0EB2814D11F
:103F100094F83A00902810D104F16E0001F071FB82
:103F20000749B1EB002F06D004F18A0001F069FBCC
:103F30000449884201D1002010BD022010BD0000BC
:103F4000004641544641543300E0401C02780AB117
:103F50008A42FAD1D0B27047F0B50022144D134610
:103F600005EB021426685EB10768BE4209D1666897
:103F70008768BE4205D1A4684669B44204D000E017
:103F80000123521C022AEBD3022A01D069B904E0B2
:103F90004BB9022907D01220F0BD05EB0210808931
:103FA000B0F5807F01D00020F0BD1020F0BD0000F2
:103FB0002433002030B50021054B0C4603EB0112E1
:103FC0001568854200D11460491C0229F6D330BD22
:103FD000243300200268C06A938952895343B1FB9D
:103FE000F3F1001D04C81AB1914203D3891AF8E70E
:103FF00000207047006808447047C269891E921EFD
:104000008A4201D800207047026B408901FB0020E2
:10401000704700002DE9F05F82460C4601F11A005E
:1040200001F0FAFA78BB2078012700F03F00401E2B
:1040300000EB8001DFF8589001EBC00500264FF639
:10404000FF7B00BF19F80600204401F0E5FA804626
:104050006FB1FF2D17D200F0B1FF07463AF81500F7
:104060006D1C00F0ABFF87420DD1474601E0D845FB
:1040700009D1761C0D2EE5D32078400606D52FB148
:104080003AF8150010B10020BDE8F09F0120FBE7D1
:10409000545D00082DE9F04105680F00804606D008
:1040A00001F0C8F9022809D20120BDE8F0816E694B
:1040B00016B1E869B04207D8012605E0411CF4D0EA
:1040C000E9698142F1D83E463446E869641CA04261
:1040D00002D80224022E0AD32146404601F0AAF952
:1040E00038B10128E1D0411CDFD0B442EDD100202D
:1040F000DBE74FF0FF3632462146284601F08EFCC2
:1041000030B957B122463946284601F087FC20B124
:1041100001280FD001242046C7E76C61D5E90601CC
:10412000891E884201D8401EA861287940F001000C
:104130002871F0E73446EEE72DE9F84F8246006833
:104140000F680024066988462546785D6D1C202886
:104150002AD32F2823D05C2821D0FF2C49D2A0F1CC
:1041600081017D290BD8795D6D1C01EB0020A1F147
:10417000400280B23F2A02D380397F2939D20121FF
:1041800000F0F6FE5FEA000933D0B9F1800F12D2D9
:10419000014675A0FFF7D8FE58BB0CE06D1C795D99
:1041A0002F29FBD05C29F9D07A19C8F800202028E3
:1041B00005D204250FE026F81490641CC5E70025FD
:1041C00009E000BF06EB440030F8020C202801D0C3
:1041D0002E2802D1641E002CF4D1002026F81400F1
:1041E0003CB10B2220210AF1240001F0F7FB00274B
:1041F00003E00620BDE8F88F7F1C36F81700202862
:10420000FAD02E28F8D01FB145F0030500E0641E57
:104210002CB106EB440030F8020C2E28F7D14FF0F9
:1042200000094FF0080BCDF8009000BF36F81700DA
:1042300007F101075FEA000824D0B8F1200F04D08D
:10424000B8F12E0F04D1A74202D045F00305EDE7E7
:104250000098584501D2A74219D1BBF10B0F0FD0DE
:10426000A74201D045F003050CD84FF0080000909C
:104270004FEA896027464FF00B0B4FEA1069D5E7EC
:1042800045F003059AF82400E52849D04BE0404664
:10429000B8F1800F07D300F091FE002100F068FE16
:1042A000804645F00205B8F1FF0F13D90099ABF134
:1042B0000100814204D345F00305CDF800B0B5E715
:1042C0000AEB01004FEA182280F824200098401CD5
:1042D00000901CE0B8F1000F04D0014625A0FFF7C4
:1042E00033FE20B14FF05F0845F003050FE0A8F161
:1042F0004100192802D849F0020908E0A8F161003C
:10430000192804D8413049F001091FFA80F8009AB1
:104310000AEB020181F824800098401C009085E798
:1043200005218AF82410BBF1080F03D14FEA8960F8
:104330004FEA1069C9F38100032803D06FEA09012D
:10434000890701D145F00205A90709D409F0030145
:10435000012901D145F01005012801D145F00805DA
:104360008AF82F50002045E7222A3A3C3E3F7C7FC6
:10437000000000002B2C3B3D5B5D0000401E02282E
:1043800012D20A4901EB00118889B0F5807F05D06F
:1043900008B1401E80B2888110B103E00020FAE726
:1043A000002008600020704702207047243300205E
:1043B0002DE9F04704460021D0F8009000F0D4F930
:1043C00000285BD1FF25471EA84627634846E169C0
:1043D00001F00BFB060050D1216A087850B1CA7A6F
:1043E000E52802F03F02A2713FD0130704D50F2A3F
:1043F0003BD105E0042640E00F2A01D0E5B120E0E2
:1044000094F82F20520632D4420606D591F80D803A
:1044100000F0BF00626905462263A84209D14A7BC9
:10442000424506D1D9F81000FFF7F4FD08B16D1E22
:1044300000E0FF25EDB21AE0084601F0DBFB404545
:104440001BD094F82F00C0070FD1D4F8201004F12E
:1044500024000B2211F8013B10F8015B5B1B521E7C
:1044600002D0002BF6D000E03BB1FF2527630021EE
:10447000204600F005F80600A8D03046BDE8F087D9
:104480002DE9F047054647690468C0698946203729
:1044900010B1B7F5001F02D30420BDE8F087A18951
:1044A000B7FBF1F201FB127100295FD1401CE861FA
:1044B000A9694FF0000819B3A0896289B7FBF0F031
:1044C000521E104252D1284600F0B4FF0646012881
:1044D0001FD9701C36D0E069B04241D8B9F1000F45
:1044E00012D02846A969FFF7D5FD06000FD0012E8E
:1044F0000FD0701C26D0204601F0CEFB10BB0AE086
:104500002089B0EB571F31D8C5F81C80C4E70720BD
:10451000C3E70220C1E7A289002104F1380001F0BD
:104520005DFA4FF0000831462046FFF766FD4FF078
:10453000010960630DE000BF84F80390204601F09C
:10454000ABFB08B10120A8E7606B08F10108401C33
:10455000606361894145EFD8616BA1EB080060633E
:1045600031462046AE61FFF748FDE8616F61A089E2
:10457000B7FBF0F100FB11702044383028620020B6
:104580008BE700002DE9F04F0446D0F8009090F83A
:104590002F0089B010F0A00F03D0062009B0BDE8AD
:1045A000F08F0025D9F8100000E06D1C30F81510D0
:1045B0000029FAD104F124010C226846039101F08C
:1045C00003FA9DF80B00C00719D0402084F82F0093
:1045D000012633466946D9F81020039800F0E4FE1E
:1045E0002046FFF7E5FE10B9761C642EF1D3642E49
:1045F0000FD00428D2D19DF80B0084F82F009DF82D
:104600000B00800707D50D200C35B5FBF0F56D1CB0
:1046100002E00720C2E7012500212046276800F0BC
:10462000A3F888B900263846E16901F0DEF958B9E7
:10463000206A0078E5280AD048B1002601212046EA
:10464000FFF71EFF0028EED0042812D012E0761CDF
:104650002846AE42F2D1451E059567D06169684291
:1046600001EB4011204600F07FF85FEA000803D01C
:1046700076E00720804673E0039801F0BBFA4FF61E
:10468000FF7B07904846E16901F0AFF95FEA000857
:1046900066D1D9F8100006900598D4F82080C0B2F1
:1046A0000490079988F80D100F2188F80B1000214D
:1046B00088F80C1008F11A0001F098FA0498DFF855
:1046C000A4A0401E00EB800101EBC006002701E022
:1046D0005D4503D0069830F81650761C1AF807107E
:1046E00001EB0800294601F081FA05B95D467F1CFF
:1046F0000D2FEDD35D4505D0069830F8160008B1B2
:10470000049803E0049840F04000049088F800000A
:10471000012189F8031000212046FFF7B1FE5FEA6E
:1047200000081DD10598401E0590ABD14846E169AF
:1047300001F05BF95FEA000812D120220021206A13
:1047400001F04CF90B22206A039901F03DF994F82D
:104750002F00216A00F018000873012089F8030077
:1047600040461BE7545D00082DE9F04104680F4600
:104770000646B1F5001F3CD2F8063AD17761B5681C
:1047800025B92078032806D3E56A25B16089A18977
:1047900000FB01F812E02089B0EB571F29D9E06A2D
:1047A00012E0304600F046FE0546401C1FD0022DA8
:1047B0001FD3E069A8421CD9A7EB08074745294643
:1047C000EFD22046FFF719FCC6E9065088B1A1894F
:1047D000B7FBF1F10844F061A089B7FBF0F100FBF1
:1047E00011702044383030620020BDE8F081012093
:1047F000FBE70220F9E70000084910B50B5C002236
:1048000053B901220A540A1801EB8000127B406858
:104810000168104688470246104610BD4433002008
:1048200030B4054C231804EB80001B7B40680469FE
:104830001846A44630BC60474433002030B4054DD0
:104840002C1805EB8000247B406885682046AC4628
:1048500030BC604744330020044A111802EB80004A
:10486000097B406842680846104700004433002036
:1048700030B4054D2C1805EB8000247B4068C568DA
:104880002046AC4630BC60474433002038B504466F
:1048900000F027FB00280CD16946204601F025FADC
:1048A000002806D12069FFF769FD002801D1002109
:1048B000216038BD2DE9FE4F0D460446694601F0E2
:1048C00014FA07006AD1677D002FFBD1E06A4FF030
:1048D000020A4FF0010804F1300B002871D0691C66
:1048E0002FD0E068A84200D20546A561002D55D022
:1048F0002046691EFFF76EFB0146E0610098FFF756
:104900007CFB00287DD000996D1E8A89B5FBF2F3EF
:104910004D896D1E2B401D18A069B0FBF2F302FB00
:1049200013000028E3D0226AAA42E0D0207D0006CE
:104930003BD5487801235946FFF79AFF002870D1EC
:104940002FE002C80191A16883460225F1B100263B
:10495000AD1C029189462046761C00F06BFD014695
:1049600001284ED9481C5CD009F101008142F1D0E8
:104970000198854206D8CBF800600BF10400029A3A
:1049800004C083460098C0698842E0D8E06A0560A8
:104990000198854203D80021CBF80010A5E011272B
:1049A000A3E0207D00F07F002075009801232A46B7
:1049B00040785946FFF742FF002832D1256294E043
:1049C000FFE7E068A84203D2217D890700D40546AD
:1049D0004FF00009A069C4F818900DB300994E89F2
:1049E00089894E4370B1691E401EB1FBF6F1B0FBE0
:1049F000F6F2914206D3711E8843A0612D1AE16937
:104A00000DE05BE0A16849B900212046FFF742FBB9
:104A10000146012852D0481C61D0A160E161D9B99A
:104A20002FE05CE0A069AD1B3044A061207D8007D1
:104A3000204605D5FFF72EFB010004D100250DE02F
:104A400000F0F8FC0146481C49D0012936D90098ED
:104A5000C069884232D9E161B542E3D8A0692844EF
:104A6000A06100988289B5FBF2F302FB135242B1B8
:104A7000FFF7C3FA10B300998989B5FBF1F101EB97
:104A80000009E168A069884204D9E060217D41F015
:104A90004001217500998A89B0FBF2F302FB1300F3
:104AA00018B3226A4A4520D0207D00060FD54878E9
:104AB00001235946FFF7DCFE88B904E084F815A00D
:104AC0000220BDE8FE8F207D00F07F002075009859
:104AD00001234A4640785946FFF7B0FE18B184F8E2
:104AE00015800120EDE7C4F820903846E9E7000082
:104AF0002DE9F74181B0904602980090684600F099
:104B00000FFD040003D50B2004B0BDE8F0810D4E6D
:104B1000002756F824501DB12846FFF74BFA2F7096
:104B20000198002800D0077046F8240002D0B8F1A0
:104B3000010F01D00020E7E7002201A902A800F040
:104B40007DFAE1E7340000202DE9F743ADF5147D4F
:104B500005000BD002F03F0632468DA995A800F063
:104B60006DFA04004FF0000805D0F6E009200DF5BD
:104B7000177DBDE8F0838D980DA90090016168460E
:104B8000959900F09FFB04000ED19DF82F000006C0
:104B900001D5062408E0700801D0012100E00021C1
:104BA0006846FFF7D9F9044616F01C0F5DD04FF0A8
:104BB0000109C4B1042C10D100206B4902E0401C53
:104BC000022804D201EB00121268002AF7D1022851
:104BD00007D06846FFF7D6FC044646F008065CB1ED
:104BE000BBE01224B9E09DF8060010F0110F47D188
:104BF000700701D50824B0E0300747D500F08EFCDF
:104C00000746089839460E3000F0E8FF0898394604
:104C1000163000F0E3FF08992020C87208998D989B
:104C200000F0DCFC0746002208998D9800F0C2FFD6
:104C3000089800211C3000F0D1FF8D9981F8039075
:104C400017B3D1F8349000223946684600F078FF57
:104C5000040009D149468D9800F0C7FE04008D98E4
:104C6000A7F1010747610DD077E0ECBB9DF8060086
:104C7000C10601D5042470E0B10703D5C00701D0F7
:104C800007246AE0300701D546F040068D98406B56
:104C900068620898A862700801D0012100E0002134
:104CA000684600F05BFC2861C0B308998D9800F05D
:104CB00095FCA86008981C3000F0A3FCC5F82C8077
:104CC000E8608D9929608D9905F130004FF480528C
:104CD000C988A9802E7585F81580C5F82080002127
:104CE0008146C5F8188000E037E000F077FEB00696
:104CF00035D5EE689EB3AE618D98A96847898089E5
:104D000047430FE0284600F095FB0146012800D8F4
:104D10000224481C03D0F61B24B105E021E0012445
:104D2000F61B01E0BE42EDD8E961B4B98D988289E5
:104D3000B6FBF2F302FB13628AB1FFF75EF980B1B2
:104D40008D9901238A89B6FBF2F202442A624878DF
:104D50004946FFF773FD10B10124C5F800802046D5
:104D600005E70224F9E70000243300202DE9F04F85
:104D7000884689B00021196099461546044604A961
:104D800000F0B3FF002812D1607D00280FD1207DF4
:104D9000C0070BD0A169E0680127401A4FF0020A52
:104DA00004F1300B854200D9054695E0072009B093
:104DB000BDE8F08F049BA1699889B1FBF0F200FB7C
:104DC0001212002A69D1B1FBF0F65889401E064044
:104DD00011D129B1E06A28B12046FFF7FBF805E0C0
:104DE000A06803E02046E16900F024FB02281DD3FF
:104DF000411C4DD0E061E1690498FFF7FEF8A8B1CD
:104E00003044009004988189B5FBF1F1059131B3EC
:104E1000721841898A4201D9891B0591407841461F
:104E2000059B009AFFF70AFD90BB03E084F815A0EC
:104E30000220BCE7207D00060CD5216A0098081AE4
:104E40000599884206D204998A89594600FB028056
:104E500000F0BAFD049886890598464332E0226A3C
:104E600000998A4217D0217D090609D5407801238F
:104E70005946FFF7FDFC58B9207D00F07F002075F2
:104E80000498012359464078009AFFF7D7FC10B1E7
:104E9000677501208BE7009820620498A1698089DA
:104EA000B1FBF0F200FB1212861AAE4200D92E4678
:104EB000B1FBF0F200FB12100119324640463031CE
:104EC00000F082FDA069B0443044A061D9F8000030
:104ED0008119AD1BC9F80010002D7FF46BAF0020C5
:104EE00065E7F8B50446694600F0FFFE00280ED1DC
:104EF000217D4A060BD508060ED50098226A0123AB
:104F0000407804F13001FFF7B3FC08B10120F8BD8F
:104F1000207D00F07F00207500F000FB0646616AEE
:104F2000009800F062FD0028F1D1A56A2946E87AD0
:104F300040F02000E872A268206800F03BFE05F116
:104F40001C00E16800F04AFE314605F1160000F051
:104F500045FE002105F1120000F048FE00980121F5
:104F6000C17000F055FE217D01F0BF012175F8BD33
:104F700070B580281BD345F2205309B10D4D00E0D8
:104F80000D4D002110245A1A02EBD27201EB62027D
:104F900035F82260864206D001D2114600E0134661
:104FA000641EF0D104E01CB105EB8200408870BDA6
:104FB000002070BD02B201087E5D000830B5B0F57A
:104FC000805F01D21B4900E01B4931F8022B002A07
:104FD00015D0904213D331F8024B230AE5B252FAAE
:104FE00084F4844221D9092B09D2DFE803F00509B2
:104FF0000E11131517191B00801A31F8100030BD5F
:10500000811A01F00101401A00E0103880B230BD71
:105010002038FBE73038F9E71A38F7E70830F5E7CA
:105020005038F3E7A0F5E350F0E7002BCDD101EBCA
:105030004501CAE786060308780803082DE9FF4101
:10504000002790460E460F6000F06AFA050003D56F
:105050000B2004B0BDE8F081974850F825409CB182
:105060003460207808F0FE0620B16078FFF7F4FB8A
:10507000C1070BD02770E8B2B8466070FFF7BCFBE1
:10508000C10708D00320E4E70C20E2E70EB1400797
:1050900004D40020DDE71EB1400701D50A20D8E77F
:1050A000607804F10C020221FFF7BAFBF0BBA08983
:1050B000A0F50071B1F5606F3FD8411E08423CD1A8
:1050C000002631462046FEF707FF022822D10025A0
:1050D0004FEA0D0704EB051090F8FA1100F5FB708C
:1050E00019B1083000F08DFA00E0002047F82500E3
:1050F0006D1C042DEED3002557F8256036B13146DE
:105100002046FEF7E9FE022801D203E003206D1CD1
:10511000042DF1D3042810D0022878D204F14300E2
:1051200000F07AFAA189884271D100E005E004F12B
:105130004E0000F071FA10B105E0012089E704F19A
:105140005C0000F05EFA206294F84850A570012DD2
:1051500001D0022D5BD1454394F845006081E8B34E
:10516000411E084253D104F1490000F055FA208154
:10517000A1894909B0FBF1F201FB120070BB04F1F7
:105180004B0000F049FA070004D104F1580000F088
:1051900038FA074604F1460000F03EFA010036D026
:1051A000A08923894009B3FBF0F04A1902449742D1
:1051B0002DD3B81A6789B0FBF7F078B103274FF603
:1051C000F57C604500D8022740F6F57C604500D8A4
:1051D00001273244801C3144226300E017E0E06183
:1051E000C4E90961032F14D08BB12944E162022F75
:1051F00020D000F0010100EB400001EB5000A1893C
:10520000401E0844B0FBF1F0216A884214D90D20F9
:105210001FE704F1620000F0FFF90028F7D12089B0
:105220000028F4D104F1640000F0EBF9E062E069D9
:105230008000E4E74000E2E74FF0FF30A0616061EA
:1052400080202071032F2CD104F1680000F0E4F9D4
:10525000012826D1711C204600F0C7FB08BB84F84A
:10526000048004F2362000F0D7F9A0F52A41553920
:1052700017D104F1380000F0C4F91049884210D168
:1052800004F5077000F0BDF90D49884209D104F515
:10529000087000F0B6F9A06104F5097000F0B1F9EA
:1052A000606105482770001F0188491C0180E1806A
:1052B0002046FEF77FFEECE63400002052526141AA
:1052C0007272416173B504460568019801E0401CA3
:1052D000019001782F29FAD05C29F8D00021A16033
:1052E00001980078202806D2802084F82F002046DC
:1052F000FFF73AFA7CBD01A92046FEF71DFF002802
:10530000F8D12046FFF754F894F82F1028B104285C
:10531000F0D14907EED405207CBD4907FCD4A07923
:10532000C006F8D5A9896069B0FBF1F201FB120053
:1053300041192846383100F051F9A060DBE7000040
:1053400013B54FF6FF73012269460248FDF752F884
:1053500000981CBDA422002010B5002821D0114BBC
:105360000022001F196803E0814203D80A464968F9
:105370000029F9D152B11368841A9C4204D1006803
:1053800018441060104602E0506000E0186039B127
:1053900002680B1A934203D10B681A4402604968F1
:1053A000416010BD400000207CB516461C460546F5
:1053B0000B2200F009FB052C11D91D4A0CE000213D
:1053C000B61C2346044663F35F044008E30300D59C
:1053D0005440491C1029F4D330880028EFD107210C
:1053E0004FEA0D0304F00F003030392800D9C01DFA
:1053F0005854491E2409F5D17E20002258544C1ED1
:1054000006E081387D2802D8A24206D0521C521CE8
:105410008A4202D2A85C2028F3D1082902D2585C23
:10542000491C00E02020A854521C082AF5D37CBD5A
:10543000211001002DE9F04104680D4602290BD32B
:10544000E069A84208D920784FF0FF36012807D03C
:10545000022834D0032849D001263046BDE8F08127
:10546000A08905EB5507B7FBF0F0A16A014420467F
:1054700000F0BBFA0028F0D1A089B7FBF0F100FBE7
:1054800011717F1CB7FBF0F0214491F83880A16ABC
:105490000144204600F0A9FA0028DED1A089B7FB1C
:1054A000F0F100FB1170204490F8381048EA012018
:1054B000E90701D00609D0E7C0F30B06CDE7A089C4
:1054C000A16A4008B5FBF0F00144204600F08DFAD7
:1054D0000028C2D1A1896800B0FBF1F201FB1200E3
:1054E0002044383000F098F80646B6E7A089A16A53
:1054F0008008B5FBF0F00144204600F076FA002861
:10550000ABD1A189A800B0FBF1F201FB120020444D
:10551000383000F076F820F070469EE700207047A3
:1055200010B504464FF0FF302268002A13D0114610
:1055300000E0491C0B78202B0ED33A2BF9D112F83E
:10554000013B303B0A2B06D28A4204D1022B02D205
:10555000491C1846216010BD002010BDF0B5024660
:105560001D4BD2F80050002003EB00142668AE4219
:1055700007D166689768BE4203D1A4685669B442F1
:1055800002D0401C0228EFD3022814D1002002E0F0
:10559000401C022804D203EB00142468002CF7D12D
:1055A00002280ED003EB00142560956865605269EF
:1055B000A2600022A281002903EB0011898902D098
:1055C00019B10020F0BD491C01E04FF4807103EBDC
:1055D0000012401C9181F0BD2433002070B50646B6
:1055E0000D4601F11A0000F017F804463078032840
:1055F00005D105F1140000F00FF844EA00442046FC
:1056000070BDC178827842EA01214278007842EA8E
:10561000012140EA012070474178007840EA0120EA
:1056200070470000FBF7E6FCFDF7AAFEFCF76CFFF5
:10563000FCF73EFFFDF76EF8FDF748F8FDF712F8AE
:10564000FCF754FFFDF71EF84FF4005600223146D8
:105650007548FBF7BCFC002271117448FBF7B7FCDE
:10566000734D012210212846FBF7B1FC01222021B5
:105670007048FBF7ACFC4FF480690022494628468D
:10568000FBF7A5FC4FF4006A002251462846FBF7C1
:105690009EFC4FF4805B002259462846FBF797FC9E
:1056A0007C2265A168A0FEF7B5F9FEF707F87248FD
:1056B000802261A1038871A0FEF7ACF981225EA16E
:1056C00077A0FEF7A7F982225BA183A0FEF7A2F9DB
:1056D000832259A18EA0FEF79DF9DFF870829C4CC1
:1056E000524F01213846FBF76DFC012830D031467E
:1056F0004046FBF767FC012865D02078012844D09C
:1057000002287CD00328EBD101224F464946284687
:10571000FBF75DFC012251462846FBF758FC0022AE
:1057200059462846FBF753FCFBF71AF90122394684
:105730002846FBF74CFC002251462846FBF747FC65
:10574000012259462846FBF742FC00202070C7E79B
:1057500001213846FBF736FCA8B131464046FBF73D
:1057600031FC0128F4D1474601213048FBF72AFCDF
:105770000028F9D131463846FBF724FC0028F3D144
:1057800003202070C0E70120207001224F464946C7
:105790002846FBF71CFC012251462846FBF717FC64
:1057A000002259462846FBF712FC002169A0FAF7AF
:1057B00085FE60600028B9D1002239462846FBF7F3
:1057C00006FC0122B8E7474631463846FBF7FAFBAC
:1057D00098B101211548FBF7F5FB0128F4D101210F
:1057E0001248FBF7EFFB0028F9D131463846FBF7AA
:1057F000E9FB0028F3D1C3E701E002202070012279
:105800004F4649462846FBF7E2FB0122514628460F
:10581000FBF7DDFB002259462846FBF7D8FB642145
:105820000020FBF7E1F881E700040240000002409D
:10583000001C0240000C02402E2E2F5372632F6D6D
:1058400061696E2E6300000046696C653A25733B02
:10585000204C696E653D25643B202D3E2057323536
:105860005132353620466C617368B2E2CAD4BFAAA1
:10587000CABC2E2E2E0D0A002C00002046696C6535
:105880003A25733B204C696E653D25643B202D3ED7
:10589000206964203D20307825580D0A0000000062
:1058A00046696C653A25733B204C696E653D2564FD
:1058B0003B202D3E20C7EBB0B4204B45593120BDD5
:1058C000F8D0D05344BFA8B5BD466C617368B5C469
:1058D000B8B4D6C60D0A000046696C653A25733B1C
:1058E000204C696E653D25643B202D3E20C7EBB002
:1058F000B4204B45593220BDF8D0D0466C61736856
:10590000C0EFCAFDBEDDB5C4B6C1C8A10D0A000016
:1059100046696C653A25733B204C696E653D25648C
:105920003B202D3E20C7EBB0B4204B455931202BF6
:10593000204B45593220BDF8D0D0466C617368C801
:10594000ABC6ACB2C1B3FD0D0A00000000080240B6
:1059500000000020312E485454000000F0B50B30F8
:10596000154D20F007010024144A0FE003688B4214
:105970000BD38B4205D95E1A43184768C3E9006709
:1059800000E04368136002C004E0021D10680028B4
:10599000ECD12046002802D1286808B10020F0BDD3
:1059A000064A07481060074A121A22F00702C0E9A7
:1059B000002401202860D7E7440000204000002098
:1059C0005C33002058530020002A05D011F8013B19
:1059D00000F8013B521EF9D1704700005FFA81F1D7
:1059E00000F8011B521EFBD1704770B50446406B96
:1059F0000D460026A8420FD0204600F04DF90600C3
:105A00000AD1607801232A4604F13801FEF716FF17
:105A100008B1751E01266563304670BD2DE9F0475B
:105A2000022617460D46044602297DD3E069A842A6
:105A30007AD920784FF00109012804D0022840D0FB
:105A400003287AD154E0A18905EB5508B8FBF1F0A1
:105A5000A16A01442046FFF7C8FF06006DD1A18965
:105A6000B8FBF1F201FB12802044383008F1010844
:105A7000E90704D00178FAB262F31F1100E0394659
:105A8000017084F80390A189B8FBF1F0A16A014488
:105A90002046FFF7AAFF06004FD1A189B8FBF1F21B
:105AA00001FB128020443830E90702D0C7F3071108
:105AB00005E00178C7F3032201F0F0011143017002
:105AC00039E0A089A16A4008B5FBF0F00144204606
:105AD000FFF78BFF060030D1A1896800B0FBF1F21F
